:020000040000FA
:100000000C945D000C9485000C9485000C94850084
:100010000C9485000C9485000C9485000C9485004C
:100020000C9485000C9485000C9485000C9485003C
:100030000C9485000C9485000C9485000C9485002C
:100040000C942B120C9485000C94F9110C94D31180
:100050000C9485000C9485000C9485000C9485000C
:100060000C9485000C94850000000008000201003B
:100070000003040700000000000000000000000072
:10008000250028002B0000000000240027002A0083
:10009000040404040404040402020202020203032E
:1000A0000303030301020408102040800102040836
:1000B0001020010204081020751211241FBECFEF7A
:1000C000D8E0DEBFCDBF11E0A0E0B1E0EEE8FBE399
:1000D00002C005900D92A438B107D9F726E0A4E834
:1000E000B1E001C01D92A237B207E1F710E0CDE503
:1000F000D0E004C02197FE010E94BB1ACC35D10785
:10010000C9F70E94B7120C94C51D0C94000090E032
:10011000FC01EC55FF4F249180579F4FFC018491C7
:10012000882399F090E0880F991FFC01EA57FF4F50
:10013000A591B491FC01E458FF4F859194918FB73C
:10014000F894EC91E22BEC938FBF0895AF92BF929D
:10015000CF92DF92EF92FF920F931F93CF93DF9393
:100160006C017B018B01040F151FEB015E01AE18C2
:10017000BF08C017D10759F06991D601ED91FC91E4
:100180000190F081E02DC6010995892B79F7C50111
:10019000DF91CF911F910F91FF90EF90DF90CF9063
:1001A000BF90AF900895FC01538D448D252F30E012
:1001B000842F90E0821B930B541710F0CF96089574
:1001C00001970895FC01918D828D981761F0A28DA1
:1001D000AE0FBF2FB11D5D968C91928D9F5F9F7367
:1001E000928F90E008958FEF9FEF0895FC01918D1D
:1001F000828D981731F0828DE80FF11D858D90E08A
:1002000008958FEF9FEF0895FC01918D228D892F26
:1002100090E0805C9F4F821B91098F73992708950E
:1002200089E793E00E94040121E0892B09F420E092
:10023000822F089580E090E0892B29F00E94100120
:1002400081110C9400000895FC01A48DA80FB92F12
:10025000B11DA35ABF4F2C91848D90E001968F73EE
:100260009927848FA689B7892C93A089B1898C910D
:10027000837080648C93938D848D981306C002885C
:10028000F389E02D80818F7D80830895EF92FF9226
:100290000F931F93CF93DF93EC0181E0888F9B8DA9
:1002A0008C8D98131AC0E889F989808185FF15C063
:1002B0009FB7F894EE89FF896083E889F989808186
:1002C0008370806480839FBF81E090E0DF91CF9155
:1002D0001F910F91FF90EF900895F62E0B8D10E077
:1002E0000F5F1F4F0F731127E02E8C8D8E110CC0E6
:1002F0000FB607FCFACFE889F989808185FFF5CF31
:10030000CE010E942401F1CFEB8DEC0FFD2FF11DEA
:10031000E35AFF4FF0829FB7F8940B8FEA89FB896D
:1003200080818062CFCFCF93DF93EC01888D8823CB
:10033000B9F0AA89BB89E889F9898C9185FD03C048
:10034000808186FD0DC00FB607FCF7CF8C9185FF2D
:10035000F2CF808185FFEDCFCE010E942401E9CF4D
:10036000DF91CF9108954091050350E0CA010496B2
:10037000E1E0F3E030E020E06281260F320F3196B9
:10038000BF016150734068177907B4F3FC01ED5F5A
:10039000FC4F20838C5F9C4FFC013083485F5F4F94
:1003A00061E073E089E793E00E94A60089E793E0AB
:1003B0000C94930190E0FC01E859FF4F2491FC015B
:1003C000EC55FF4F3491FC01E057FF4FE491EE23D1
:1003D000C9F0222339F0233001F1A8F4213019F1BA
:1003E000223029F1F0E0EE0FFF1FE458FF4FA591F6
:1003F000B4918FB7F894EC91611126C030953E23EB
:100400003C938FBF08952730A9F02830C9F02430DD
:1004100049F7809180008F7D03C0809180008F77A5
:1004200080938000DFCF84B58F7784BDDBCF84B528
:100430008F7DFBCF8091B0008F778093B000D2CFBB
:100440008091B0008F7DF9CF3E2BDACF3FB7F89483
:1004500080918A0190918B01A0918C01B0918D01C6
:1004600026B5A89B05C02F3F19F00196A11DB11D0F
:100470003FBFBA2FA92F982F8827BC01CD01620F4B
:10048000711D811D911D42E0660F771F881F991F06
:100490004A95D1F708958F929F92AF92BF92CF92D3
:1004A000DF92EF92FF920E9426024B015C0182E3F1
:1004B000C82ED12CE12CF12C0E9426026819790952
:1004C0008A099B09683E734081059105A8F321E0E4
:1004D000C21AD108E108F10888EE880E83E0981E60
:1004E000A11CB11CC114D104E104F10429F7FF904F
:1004F000EF90DF90CF90BF90AF909F908F90089536
:100500002FB7F894609186017091870180918801DE
:10051000909189012FBF0895CF93DF93EC019A81C9
:100520008B819CBD8DBD60E08A850E94DA0181E0EF
:100530008C87DF91CF9108958EBD00000DB407FE2A
:10054000FDCF8EB508958FEF0C949C020F931F93EF
:10055000CF93DF93EC010E9480028B010E94A302E3
:100560008F3F69F00E948002601B710BC617D7078E
:10057000A8F780E0DF91CF911F910F91089581E05E
:10058000F9CFCF93DF93FC012485222349F0EC01BE
:1005900061E082850E94DA018FEF0E949C021C8636
:1005A000DF91CF9108950F931F93CF93DF938C0129
:1005B000862FEA010E949C02FE0181918EBDDE5FC2
:1005C000EC17FD0741F081910DB407FEFDCF8EBD04
:1005D00000000000F5CF0DB407FEFDCF8FEF0E94A5
:1005E0009C028FEF0E949C020E94A302F801858763
:1005F0008F71853059F080E28387C8010E94C10263
:1006000080E0DF91CF911F910F91089581E0F9CFA4
:10061000DF92EF92FF920F931F93CF93DF93EC0142
:10062000162F022FF32EE42ED52E888581112DC092
:100630008C85811103C0CE010E948C02112321F010
:100640008CE291E00E94A602812F80640E949C02AD
:100650008D2D0E949C028E2D0E949C028F2D0E9447
:100660009C02802F0E949C0287E8111101C085E93D
:100670000E949C020E94A3021BE00E94A3028D879D
:1006800087FF09C01150C9F706C0CE010E9453036D
:100690008111CECF8FEFDF91CF911F910F91FF90FE
:1006A000EF90DF9008951F93CF93DF93EC0188853F
:1006B00018868230A9F488E592E00E94A602182FDD
:1006C000882359F08DEF0E949C02CE010E94C10246
:1006D000812FDF91CF911F9108958EE18B87F5CF08
:1006E000813099F420E030E0A9016CE0CE010E9455
:1006F0000803882339F089E08B87CE010E94C1026C
:1007000010E0E6CFCE010E94C10211E0E1CFCF920E
:10071000DF92EF92FF920F931F93CF93DF93EC0141
:100720006A017B0189018885813049F48C819D8132
:10073000AE81BF818C159D05AE05BF05C1F08E85CC
:10074000A7019601833039F089E0220F331F441F3F
:10075000551F8A95D1F762E1CE010E9408038111ED
:1007600017C0CC82DD82EE82FF8281E088870E9402
:1007700080027B010E94A3028D878F3FC1F40E94FB
:1007800080026E197F096D327140A0F38DE101C0C6
:100790008CE08B87CE010E94C10280E0DF91CF9177
:1007A0001F910F91FF90EF90DF90CF9008958E3FB3
:1007B00011F088E1EECF8FEF8EBDF801D801A15086
:1007C000BE4F9FEFAE17BF0749F00DB407FEFDCF38
:1007D0008EB59EBD819300000000F4CF0DB407FEDE
:1007E000FDCF8EB58C931D860E94A3020E94A302AA
:1007F0008C819D81AE81BF810196A11DB11D8C832D
:100800009D83AE83BF838985811102C081E0C6CFFD
:10081000CE01DF91CF911F910F91FF90EF90DF906C
:10082000CF900C945303CF92DF92EF92FF920F93ED
:100830001F93CF93DF93EC016A017B0189018985C6
:10084000882371F18E85833039F099E0CC0CDD1C62
:10085000EE1CFF1C9A95D1F7A701960168E1CE0125
:100860000E940803882339F08DE08B87CE010E9417
:10087000C102F12C0BC0A8016EEFCE010E94D30281
:10088000F82E882399F3CE010E94C1028F2DDF91AB
:10089000CF911F910F91FF90EF90DF90CF9008952F
:1008A0008885823049F48C819D81AE81BF81C816D4
:1008B000D906EA06FB06C1F08E85A70196018330B2
:1008C00039F089E0220F331F441F551F8A95D1F755
:1008D00069E1CE010E94080381110EC0CC82DD8245
:1008E000EE82FF8282E0888788E592E00E94A6027D
:1008F000811108C084E201C08EE08B87CE010E9486
:10090000C102B4CFA8016CEFCE010E94D302F82E31
:100910008823A1F38C819D81AE81BF810196A11DA9
:10092000B11D8C839D83AE83BF838985882309F4A1
:10093000ADCFCE01DF91CF911F910F91FF90EF903E
:10094000DF90CF900C945303EF92FF921F93CF93BD
:10095000DF93FC01208111E020FF12C0EC017C013B
:10096000FBE0EF0EF11C4F81588569857A85970170
:1009700089819A810E941304182F811108C010E008
:10098000812FDF91CF911F91FF90EF900895888183
:1009900081FD04C088818E7F8883F2CF4F81588586
:1009A00069857A858B819C81AD81BE81480F591FF5
:1009B0006A1F7B1F970189819A810E94130481110C
:1009C000E9CFDDCFCF92DF92EF92FF921F93CF93CB
:1009D000DF93DC011196ED91FC91EF2B51F490E047
:1009E00080E0DF91CF911F91FF90EF90DF90CF904B
:1009F0000895122F6A017B01EC018F819885A985EA
:100A0000BA858C159D05AE05BF0561F0CE010E942B
:100A1000A404882321F312FF0CC01882CF82D88649
:100A2000E986FA8613702881122B1883CE010B9663
:100A3000D8CF9E01255F3F4FB701A60189819A81DA
:100A40000E9487038111E9CFCACF8F929F92AF9204
:100A5000BF92CF92DF92EF92FF920F931F9342309B
:100A600051056105710560F480E01F910F91FF90C1
:100A7000EF90DF90CF90BF90AF909F908F900895B0
:100A8000FC01C08CD18CE28CF38CC416D506E60632
:100A9000F70650F3480159016A017B0185818032D4
:100AA00041F584899589A689B78917E07695679578
:100AB000579547951A95D1F7480F591F6A1F7B1F05
:100AC00023E0CF0180960E94E204009769F2E89447
:100AD000C7F8DD24EE24FF24CC0CDD1CCC0CDD1C7F
:100AE0008C0D9D1DFC0180829182A282B38281E0E7
:100AF000BCCF803109F0B8CF4489558966897789A0
:100B00004D0D511D611D711D23E0CF0180960E9486
:100B1000E204009709F4A8CFDD24EE24FF24CC0CD6
:100B2000DD1CC80ED91EF60111830083E0CFCF92E1
:100B3000DF92EF92FF920F931F93CF93DF93423098
:100B400051056105710550F48FEFDF91CF911F9131
:100B50000F91FF90EF90DF90CF900895FC01C08C33
:100B6000D18CE28CF38CC416D506E606F70660F34A
:100B700089016A017B01EC0185818032B1F58489AC
:100B80009589A689B789E7E0769567955795479542
:100B9000EA95D1F7480F591F6A1F7B1F22E0CE014B
:100BA00080960E94E204009779F2E894C7F8DD2469
:100BB000EE24FF24CC0CDD1CCC0CDD1C8C0D9D1D0B
:100BC000FC0180819181A281B381488D598D6A8D0C
:100BD0007B8D481759076A077B0738F1F801808336
:100BE0009183A283B38381E0B0CF803109F0ACCF91
:100BF00044895589668977894D0D511D611D711D87
:100C000022E0CF0180960E94E204009709F49CCF75
:100C1000DD24EE24FF24CC0CDD1CC80ED91EF60109
:100C200080819181B0E0A0E0D0CF80E08ECF4F9264
:100C30005F926F927F928F929F92AF92BF92CF926C
:100C4000DF92EF92FF920F931F93CF93DF93EC010C
:100C50004A015B014C845D846E847F842881222359
:100C600009F45CC0488959896A897B894815590506
:100C70006A057B0581F081149104A104B10469F433
:100C80001C861D861E861F86888A998AAA8ABB8A28
:100C90008A818F7D8A8381E046C023FF2CC0888DA6
:100CA000998DAA8DBB8D88159905AA05BB05B0F154
:100CB000EE81FF813481375F7501640181E0C81ADC
:100CC000D108E108F108032E04C0F694E794D79404
:100CD000C7940A94D2F78A8186FF36C08C8D9D8D89
:100CE000AE8DBF8D8C0D9D1DAE1DBF1D8C879D874C
:100CF000AE87BF87C9CF25FFDBCFEE81FF8186811D
:100D0000978125E0880F991F2A95E1F7B0E0A0E0D0
:100D100088159905AA05BB0508F0B6CF4C865D86F7
:100D20006E867F8680E0DF91CF911F910F91FF90BB
:100D3000EF90DF90CF90BF90AF909F908F907F907B
:100D40006F905F904F900895DB01CA010197A10950
:100D5000B10904C0B695A795979587953A95D2F7AE
:100D6000C816D906EA06FB0620F0452B462B472B72
:100D700049F526FF22C0848D958DA68DB78D8C8771
:100D80009D87AE87BF878E01045F1F4FC114D104BA
:100D9000E104F10409F478CF4C855D856E857F858B
:100DA00098018E819F810E94970591E0C91AD10810
:100DB000E108F108181654F3B1CF8C8D9D8DAE8DDE
:100DC000BF8DDDCFC81AD90AEA0AFB0ADCCF3F92F1
:100DD0004F925F926F927F928F929F92AF92BF924B
:100DE000CF92DF92EF92FF920F931F93CF93DF93F7
:100DF00000D000D0CDB7DEB75C01FC01448455843F
:100E00006684778486809780F401C084D184E284EC
:100E1000F384C414D504E604F704C0F4730162013A
:100E200010E0FFEFCF1ADF0AEF0AFF0AF401808D0E
:100E3000918DA28DB38D8C159D05AE05BF0540F437
:100E4000111132C0C084D184E284F38411E0E9CF6F
:100E50004C145D046E047F0439F19E012F5F3F4FF7
:100E6000B701A601C4010E94970587FD1DC0882314
:100E7000C1F289819A81AB81BC81892B8A2B8B2B12
:100E800081F6112329F0F401C086D186E286F3862B
:100E90000FEF1FEF2FEF3FE0B701A601C4010E9443
:100EA0002505382E811118C0312C832D0F900F90FD
:100EB0000F900F90DF91CF911F910F91FF90EF90C6
:100EC000DF90CF90BF90AF909F908F907F906F906A
:100ED0005F904F903F900895411451046104710454
:100EE000B9F4F501C486D586E686F7868281411479
:100EF000510461047104B1F0FFEF4F1A5F0A6F0AE9
:100F00007F0A4C145D046E047F0479F08F7B0BC064
:100F100097018601B301A201C4010E942505811138
:100F2000E0CFC2CF8064F5018283F50182818068C1
:100F30008283BBCFEF92FF920F931F93CF93DF93E8
:100F400000D000D01F92CDB7DEB7FC012081222354
:100F500009F47DC08C01828187FF66C04489558970
:100F6000668977898681978121E080960E94E204D4
:100F7000009789F4F80181818160818380E00F907E
:100F80000F900F900F900F90DF91CF911F910F91C5
:100F9000FF90EF900895F801E480F580FFE0EF22E4
:100FA000FF2425E0EE0CFF1C2A95E1F7E80EF91E60
:100FB000E114F104F9F2F7018081853ED9F2F801DC
:100FC000808183FF09C0808D918DA28DB38DF70143
:100FD000848F958FA68FB78FF801848D958DA68D00
:100FE000B78DF701938F828FB58BA48BE0918E0123
:100FF000F0918F013097A1F0AE014B5F5F4FBE01C2
:101000006F5F7F4FCE01039609958B819C81F7011D
:10101000918F808F938B828B89819A81978B868B1E
:10102000F80182818F778283F801E680F780C7011B
:1010300080960E94A404882309F49CCFF701808144
:1010400091810E945303882309F494CF98CF81E0C3
:1010500096CFCF93DF93EC010E949A0718821A82F1
:10106000DF91CF910895CF93CFB7F8948091840109
:10107000811124C0EAE9F0E08491EEEAF0E0949175
:10108000E82FF0E0EE0FFF1FEA57FF4FA591B49154
:10109000EC91E92321F461E08AE00E94DA018AE020
:1010A0000E9487008CB580618CBD8CB580648CBD3E
:1010B0008DE00E9487008BE00E9487008091840170
:1010C0008F5F80938401CFBFCF910895FC01848509
:1010D00083FF17C084A195A1A6A1B7A1448D558D0A
:1010E000668D778D841B950BA60BB70B811520E8B9
:1010F0009207A105B10520F08FEF9FE7A0E0B0E0D7
:10110000089580E090E0DC01F1CF0C960C949A07F2
:10111000A091AF02E091B102F091B2022091B3022E
:101120003091B4022C5B374020383105F0F5ED30BA
:10113000E0F5A032D0F5322F2227330F2A2BA5E07D
:10114000EE0FFF1FAA95E1F7E07EFF712E2B3F2BDC
:10115000FC01318320832091B9023091BA02809141
:10116000B7029091B802E091B502E83108F58C33EE
:10117000F8F42C33E8F4F5E0880F991FFA95E1F7BD
:10118000807E9F71359527952F773327822B932B60
:1011900020E03E2F330F330F330F822B932BFB01B5
:1011A00091838083FA011082089530E020E0D0CF4F
:1011B00090E080E0F4CFFC011382128288EE93E08D
:1011C000A0E0B0E084839583A683B7831486158658
:1011D000168684E491E091838083089590E080E016
:1011E00008958F929F92AF92BF92CF92DF92EF922B
:1011F000FF920F931F93CF93DF93EC017B013A8112
:1012000030FFCAC0288188889988AA88BB88422F65
:101210004870C42E23FF22C0888D998DAA8DBB8D66
:1012200088199909AA09BB0982309105A105B10560
:1012300020F5009711F530E020E0A901481B590B7B
:10124000CA01DF91CF911F910F91FF90EF90DF9036
:10125000CF90BF90AF909F908F90089525FF0DC0C5
:10126000EE81FF818681978145E0880F991F4A951D
:10127000E1F78815990509F495C0EE81FF81840195
:101280001170B501A40189E076956795579547954A
:101290008A95D1F725FF27C0848D958DA68DB78DB2
:1012A000480F591F6A1F7B1F8E819F8120E0809607
:1012B0000E94E204009709F46FC0800F911FFC01A7
:1012C0008081F701808388899989AA89BB890196E1
:1012D000A11DB11D888B998BAA8BBB8B21E030E0BF
:1012E00090E080E0AACFD380D4220115110581F4CB
:1012F000D1100EC089288A288B2881F526FF29C0A5
:10130000848D958DA68DB78D8C879D87AE87BF8781
:10131000EE81FF814C855D856E857F854250510948
:1013200061097109848104C0440F551F661F771F2E
:101330008A95D2F780899189A289B389840F951FF4
:10134000A61FB71FAC01BD014D0D511D611D711DC3
:10135000ABCF8C8D9D8DAE8DBF8DD6CF4C855D85F1
:101360006E857F85CC2059F036FF09C04F5F5F4FF7
:101370006F4F7F4F4C875D876E877F87C9CF9E01F8
:10138000245F3F4FCF010E94970587FD05C0811163
:10139000BFCF8881807749F48981826089838FEF0C
:1013A0009FEF4FCF30E020E09BCF21E030E081E0A5
:1013B00090E043CFEF92FF920F931F93CF93DF9371
:1013C0001F92CDB7DEB77C01962FF7014089518976
:1013D000628973898A019B0185E036952795179567
:1013E00007958A95D1F70F7011F0911129C0BE01B0
:1013F0006F5F7F4FC7010E94F108813051F090E08C
:1014000080E00F90DF91CF911F910F91FF90EF90AF
:101410000895F70180899189A289B3894F96A11D0A
:10142000B11D808B918BA28BB38BF7018681978145
:101430008B96F0E20F9F90011124820F931FE1CF52
:10144000405E5F4F6F4F7F4F408B518B628B738B32
:10145000ECCF8F929F92AF92BF92CF92DF92EF929A
:10146000FF920F931F93CF93DF931F92CDB7DEB7F9
:101470008C01FC01848C958CA68CB78CC08CD18C93
:10148000E28CF38CBE016F5F7F4F0C960E94F108D7
:101490000197C9F4898190E0F801848E958EA68E1B
:1014A000B78EC08ED18EE28EF38E0F90DF91CF91EA
:1014B0001F910F91FF90EF90DF90CF90BF90AF9072
:1014C0009F908F9008958FEF9FEFE6CFCF93DF939C
:1014D0001F92CDB7DEB7BE016F5F7F4F0C960E94A3
:1014E000F108019731F4898190E00F90DF91CF915D
:1014F00008958FEF9FEFF9CF2F923F924F925F9217
:101500006F927F928F929F92AF92BF92CF92DF9213
:10151000EF92FF920F931F93CF93DF93CDB7DEB778
:1015200028970FB6F894DEBF0FBECDBF9E838D8384
:101530004B015A01DC0112968C9181FF1AC083FD88
:1015400024C0A50170E060E0ED81FE818089918971
:10155000A289B38980959095A095B09565011F01EA
:10156000FCE02F0E311C84179507A607B70708F07B
:10157000F0C0AD81BE8111968C911197816011965A
:101580008C93AA24AA94BA2C53C0AD81BE815896DC
:101590004D915D916D917C915B97CD010E941706F5
:1015A0008111CFCFE6CF91018F8198850E94970559
:1015B00087FDDFCF81110FC18D819E810E94E706DB
:1015C000811109C1D6CFED81FE81848D958DA68DC7
:1015D000B78D0097A105B10581F4CF010E94E70600
:1015E000882339F2ED81FE8184859585A685B785AE
:1015F000848F958FA68FB78FEEC0ED81FE81848793
:101600009587A687B787E7C021E075C0ED81FE8189
:10161000808D918DA28DB38D84159505A605B70596
:1016200008F5408E518E628E738E8281806882832F
:10163000C50128960FB6F894DEBF0FBECDBFDF916F
:10164000CF911F910F91FF90EF90DF90CF90BF90BF
:10165000AF909F908F907F906F905F904F903F9052
:101660002F90089580918E0190918F01892B01F325
:10167000ED81FE81828180688283DACFEF81F885F7
:101680004250510961097109848104C0440F551FFA
:10169000661F771F8A95D2F780899189A289B389BD
:1016A000480F591F6A1F7B1F80E092E0801B910B3F
:1016B00076018C159D0508F47C010115110509F0D2
:1016C000A3CFAD81BE8150964D905D906D907C9082
:1016D000539758968D919D910D90BC91A02D4816D1
:1016E00059066A067B0630F4AD81BE8112968C9154
:1016F00085FF8ACF25E0CF0180960E94E204009703
:1017000009F437CFA701B401800F911F0E94CE1AB0
:101710000E0D1F1D0115124051F4ED81FE818681D1
:10172000978180960E94A404882309F422CFED813A
:10173000FE8180899189A289B3898E0D9F1DA11D8B
:10174000B11D808B918BA28BB38B8E0C9F1CCE18FE
:10175000DF08ED81FE814088518862887388C1145A
:10176000D10409F453CF8681978198878F83DC0158
:101770001396FC90B301A20129E0769567955795E1
:1017800047952A95D1F7F42282011170F11023C0F8
:1017900044855585668577850115110509F06ECF5D
:1017A000411551056105710509F40DCF228126FF10
:1017B000FACE808D918DA28DB38D481659066A069A
:1017C0007B0608F0F0CE4F5F5F4F6F4F7F4F44872F
:1017D000558766877787AD81BE811696ED91FC911E
:1017E00017971C964D915D916D917C911F9742507A
:1017F000510961097109848104C0440F551F661F96
:10180000771F8A95D2F780899189A289B389840F3D
:10181000951FA61FB71FAC01BD014F0D511D611DC6
:10182000711D0115110509F03FCFC114B2E0DB06AF
:1018300008F43ACF87A190A5A1A5B2A548175907EA
:101840006A077B0741F410A28FEF9FEFDC0187A3AB
:1018500090A7A1A7B2A7940181A192A10E9413040D
:10186000882309F486CEE12C92E0F92E60CFCF9345
:10187000DF931F92CDB7DEB7698341E050E0BE0130
:101880006F5F7F4F0C960E947C0A0F90DF91CF9183
:1018900008950C960C947C0AFC01808181110FC084
:1018A00080E2DF01982F1D929A95E9F7778366838E
:1018B000DB0115969C91903129F0903211F080E077
:1018C000089580E4808381E0828308952F923F927F
:1018D0004F925F926F927F928F929F92AF92BF9240
:1018E000CF92DF92EF92FF920F931F93CF93DF93EC
:1018F000CDB7DEB760970FB6F894DEBF0FBECDBF91
:101900001C018B01FA01DB018C91807711F480E0DE
:101910006DC3D1018C918111FACF418152815A87D7
:10192000498780818370CC24C394882349F0CA01FD
:101930000C966DE070E00E94931ACC24C394C60EFE
:101940002B877F0140E050E0BA01C8010E941706D2
:10195000412C1886512C612CD12C712C1E86B7017C
:101960006A5F7F4F7D876C878C2D8150990B988B98
:101970008F87D80150968D909D90AD90BC905397D5
:10198000A5E0B694A79497948794AA95D1F79F82DF
:101990008E8261E0C8010E94DA09FC01892B09F0FE
:1019A00086C0F80181818111B2CFEB85E4FFAFCF12
:1019B0008E2F83708150823008F0A9CFDD2019F07E
:1019C0004E82F885FF83DC1408F07BC160E0C8011B
:1019D0000E94DA09892B09F052C1D80111968C9125
:1019E000812CF2E09F2E811192CFF801808185FD3C
:1019F0008ECF80899189A289B38981159E4FAF418D
:101A0000B10508F084CFC8010E94E706882309F4D5
:101A10007ECFD8011696ED91FC9117971C964D90AC
:101A20005D906D907C901F97B2E04B1A5108610851
:101A30007108848104C0440C551C661C771C8A956F
:101A4000D2F780899189A289B389480E591E6A1EEE
:101A50007B1E25E0B301A201CF0180960E94E20423
:101A60005C01009709F453CFFC01A401119241508D
:101A70005040E1F751E05887D8011696ED91FC915E
:101A80008281B885B81708F0FCC09501B301A201A6
:101A90004B0F511D611D711D808191810E941304A6
:101AA000882309F434CF98859F5F9887E5CF2081FC
:101AB000253E11F021110EC0D11002C0482C98868D
:101AC000DC1408F4D394222309F46FCF253E21F4CB
:101AD000712C4FCFDC1488F12E32D1F333853F3097
:101AE00009F061C071102BC026FF43CF2F71622E09
:101AF0004F8558892417150609F03BCF5584722E5F
:101B0000662D6150770BAB017DE0749F9001759F4E
:101B1000300D112489859A8528173907C8F6B12C0C
:101B200094E09B1598F08181928149855A854217EE
:101B30005307A9F4892B61F61CCFD12CCDCF6A9421
:101B40002611C6CF25852515D9F2C2CFAAE0AB153F
:101B500018F084819581E9CF86819781E6CF8F3F08
:101B6000910511F008F0B4CF4FEB480F4A3108F45B
:101B7000805EB9016F5F7F4FD70113964D915C91E5
:101B8000240F351FD9019C912FEB290F2A3108F41E
:101B9000905E98139DCFB3943296BDE0BB1609F4C6
:101BA000E8CE9B01BDCF33FD93CF772009F456C01B
:101BB00021E06212ACCE9F01255F3F4F90E090FB89
:101BC000979597F98191980F2E173F07C1F75912F2
:101BD0009ECE80E2F10111928A95E9F7D80116961E
:101BE0002D913C911797F101378326834E815F81B8
:101BF000558344835C964D915D916D917C915F9787
:101C0000D1014087518762877387F901BB964E8166
:101C10005F814F70552765E0440F551F6A95E1F7C6
:101C2000E40FF51F838583FD14C087718C93938522
:101C3000987111F488608C93D10113967C928B85F6
:101C40008370813009F4EDC108F491C1823009F448
:101C5000E6C1D1011C9212961C9259CE4BE050E085
:101C60006C857D85CF010E94C11A892B09F081CE38
:101C7000D7018C9180FFADCFB1E0BE877ACED394EF
:101C8000A2CE8481940102C0220F331F8A95E2F70D
:101C9000D80150964D915D916D917C915397420F73
:101CA000531F611D711D50964D935D936D937C93F1
:101CB00053978281823028F4B0E1DB0EDC1408F403
:101CC00094CEEE85EE2309F458C0D7011596DC902A
:101CD00072E0A72EB12CEEE77E2E4701B6E08B0E08
:101CE000911CF701818192819C012A0D3B1D03808B
:101CF000F481E02D8E0F9F1F8E179F0779F0A901A9
:101D000065E0440F551F6A95E1F7240F351F419197
:101D1000042E000C550B24273527EECFF3E0FD15DC
:101D200010F483E0D82E94E09D0D822F8F708A30BE
:101D300008F091C0805DF701E90FF11D8683B4E0E2
:101D400036952795BA95E1F79150D91670F3F701BA
:101D5000ED0DF11D768240E050E0BA01C8010E940D
:101D6000170661E0C8010E94DA09009709F075C002
:101D7000D80111968C918111CACD8E819F81AC01C1
:101D800070E060E0A5E0440F551F661F771FAA951D
:101D9000D1F7C8010E941706882309F4B8CD77242B
:101DA0007A947C0CB72CEFE0AE2E670191E1C90E5E
:101DB000D11CFDE09F2EBB2009F47EC060E0C8016D
:101DC0000E94DA09FC01892B09F4A1CDD8011696ED
:101DD0002D913C91D90190968C919097816090962D
:101DE0008C938B2DB71001C080648083A3861486EA
:101DF000D701169690E090FB979597F92D91920F49
:101E0000CA16DB06C1F79587138E128ED70113967B
:101E10002D913C918F718150990B989EA001999EB4
:101E2000500D112480E069857A854617570778F5AB
:101E3000D901A40FB51F6C91062E000C770B8530CD
:101E400098F5728361838F5F4F5F5F4F32968D305D
:101E500051F7BA94B0CF895C6ECFFC012081222368
:101E600009F48BCF238523FD7CCF4BE050E0BC01F0
:101E7000C4010E94C11A892B09F073CFFFEFAF1A7A
:101E8000BF0A24E6A216B10409F02BCF40CD61E0D1
:101E900070E0A985BA85A417B50711F470E060E079
:101EA000719561957109CBCF8B3018F4758364837C
:101EB000CACF77836683C7CFF80180889188A288CC
:101EC000B38860E0C8010E94DA096C01892B09F42B
:101ED0001ECD80E2D6011D928A95E9F7F70136966C
:101EE0008BE0D60101900D928A95E1F7F701808190
:101EF0008871D6011C968C931C97E0918E01F0910D
:101F00008F01309729F1AE014B5F5F4FBE016D5FCE
:101F10007F4FCE010196099589819A81F601918BB7
:101F2000808B8B819C81978786878D81858775E0E3
:101F3000B694A794979487947A95D1F79F828E82CE
:101F4000D8011696ED91FC9180A1816080A341CECD
:101F500081E296E551969C938E93509759969C9367
:101F60008E93589753969C938E935297E0CF81E02F
:101F7000D10112968C93129712968C91129781FF31
:101F800004C08C91817109F064CED90197964D916E
:101F90005D916D917C919A97D10154964D935D938B
:101FA0006D937C93579784899589B0E0A0E0DC011C
:101FB00099278827428D538D70E060E0482B592B7C
:101FC0006A2B7B2BD1015C964D935D936D937C9333
:101FD0005F97448D558D668D778DF101408F518FC0
:101FE000628F738FFB85F2FD1EC081E060960FB695
:101FF000F894DEBF0FBECDBFDF91CF911F910F913F
:10200000FF90EF90DF90CF90BF90AF909F908F9018
:102010007F906F905F904F903F902F90089583E056
:10202000A7CF82E0A5CFC1010E941706882309F43B
:1020300010CEDBCF2F923F924F925F926F927F92A2
:102040008F929F92AF92BF92CF92DF92EF92FF92C8
:102050000F931F93CF93DF93CDB7DEB7E7970FB6FC
:10206000F894DEBF0FBECDBFFC0119821A821B821D
:1020700080818823D1F080E0E7960FB6F894DEBF28
:102080000FBECDBFDF91CF911F910F91FF90EF90C9
:10209000DF90CF90BF90AF909F908F907F906F9088
:1020A0005F904F903F902F900895909141069077C8
:1020B00011F36FAB8F0180916503E5E6F3E08F329A
:1020C00009F4AAC085E6E82E83E0F82E61E476E004
:1020D0009E012E5C3F4F3BAB2AABF7019F012F5F68
:1020E0003F4F8081803209F4AFC0FDA3ECA39F0174
:1020F000A9014E1B5F0B7901D9018D919D018823A8
:1021000071F08F3209F0A2C0CF01840F951F7C01BE
:10211000DC012D91CD012032D1F32F32C1F3DA0150
:10212000AE0FBF1FAD014E1B5F0BAE17BF0709F40B
:10213000A7C08E918E32B1F38032A1F34F3F51058B
:1021400011F00CF098CF5BA34AA3DE0197965D01D6
:1021500080E28D93CAA8DBA8AC15BD05D1F7DF01DD
:102160009D012E1B3F0B8D918E32D1F38032C1F336
:10217000772473942115310509F0712CCA01019758
:102180004F01840E951E8F3F980709F07CC09EA0DA
:10219000512CA7E06A2E812C212CB8E04B2E24175D
:1021A00035070CF0AEC0DF01A20FB31FCC90CEAA52
:1021B000AC2DA03209F4A3C0AE3221F428173907A0
:1021C00009F09DC0CEA8BC2DB232A9F0BC3799F061
:1021D000AC2DAA52A63010F4BD3269F4AEA9AA53B0
:1021E000A63048F0AEA9AB55A33028F0AEA9A15255
:1021F000AE3508F451C02817390709F0C6C0BAE057
:10220000CB2E6C1409F4CCC09C01AAE06A2EB8E075
:102210008B2EA0E14A2E5EC07F0181918F32E1F3C7
:102220006091470670914806811104C0C8010E9460
:102230004C0C22CFCE0101960E944C0CBE016F5F68
:102240007F4F811145CF17CFF90148CF8C3509F465
:1022500012CF982F977F923209F40DCF8A3309F469
:102260000ACF982F9F7B9C3309F405CF92EC980FEF
:10227000923008F400CF80528F3508F439CFFBCE6E
:1022800050E040E060CFD401CE904D01BEE2CB16CD
:1022900009F47DCF019777CF2817390709F4AFCF1D
:1022A000681408F475C0AEA9A156AA31D8F4AEA935
:1022B000A052AEAB542833243394380C6501C80CBB
:1022C000D11CD601CEA8CC92A6E0DA2E832CD31452
:1022D00008F0932C2F5F3F4F62CF712CBFE5BEAB50
:1022E000BFE5CB2EAFEBAC0DAA3128F72428E3CF06
:1022F0009C01BAE06B2EA8E08A2EB0E14B2E712C27
:10230000E9CF9EA28FA1803209F4B5CE772011F1DA
:10231000252011F082E0582E59A2F70180818823F0
:1023200061F120E0AE014F5D5F4FC8010E94660C75
:10233000882309F4A0CE80E2F801DE011196019015
:102340000D928A95E1F7C8010E942908BE016F5FCE
:102350007F4FC3CE81E089A3892D90E0F501E80F7E
:10236000F91F2EE7208328E230E02C0F3D1F820F5B
:10237000931F21E3DC012C93D0CF2FA9AE014F5D39
:102380005F4FC8010E94660C77CE681408F0A5CF95
:10239000AAE0DA2E6D1421F0821793070CF0A8CF73
:1023A0009EA2712CAFCF1F920F920FB60F921124E5
:1023B0002F933F934F935F936F937F938F939F934D
:1023C000AF93BF93EF93FF9389E793E00E942401BB
:1023D000FF91EF91BF91AF919F918F917F916F91FD
:1023E0005F914F913F912F910F900FBE0F901F90D3
:1023F00018951F920F920FB60F9211242F938F935F
:102400009F93EF93FF93E0918903F0918A0380817A
:10241000E0918F03F091900382FD1BC09081809129
:1024200092038F5F8F7320919303821741F0E091A5
:102430009203F0E0E758FC4F958F80939203FF9151
:10244000EF919F918F912F910F900FBE0F901F9042
:1024500018958081F4CF1F920F920FB60F9211241E
:102460002F933F938F939F93AF93BF938091860158
:1024700090918701A0918801B091890130918501E7
:1024800023E0230F2D3758F50196A11DB11D209390
:1024900085018093860190938701A0938801B09372
:1024A000890180918A0190918B01A0918C01B0915A
:1024B0008D010196A11DB11D80938A0190938B011E
:1024C000A0938C01B0938D01BF91AF919F918F919B
:1024D0003F912F910F900FBE0F901F90189526E8F7
:1024E000230F0296A11DB11DD2CFE9E7F3E01382BD
:1024F000128288EE93E0A0E0B0E084839583A68307
:10250000B78386E591E09183808385EC90E09587A1
:10251000848784EC90E09787868780EC90E0918BAD
:10252000808B81EC90E0938B828B82EC90E0958B9A
:10253000848B86EC90E0978B868B118E128E138E97
:10254000148E10921B0410924106109242061092B3
:10255000430680E5809365061092660681E08093CD
:102560006C0689E280936E06109271060895CF93EF
:10257000DF93CDB7DEB7CA5FD1090FB6F894DEBFDF
:102580000FBECDBF789484B5826084BD84B5816070
:1025900084BD85B5826085BD85B5816085BD80912E
:1025A0006E00816080936E001092810080918100A6
:1025B000826080938100809181008160809381009E
:1025C000809180008160809380008091B100846060
:1025D0008093B1008091B00081608093B0008091C1
:1025E0007A00846080937A0080917A008260809380
:1025F0007A0080917A00816080937A0080917A00DD
:10260000806880937A001092C100CE0183579F4F5B
:102610000E94DB08CE018F599F4F0E94DB0880E8A3
:1026200092E090939E0180939D0186E00E94870036
:1026300061E086E00E94DA0185E00E94870061E0A7
:1026400085E00E94DA010E943308EFE9F1E080E0C2
:1026500091E0DF019C011D9221503040E1F722E61C
:10266000E3E0F3E0DF01322F1D923A95E9F78BE0CA
:10267000E0E0F1E0DE01A351BF4F01900D928A9599
:10268000E1F7C850DF4F1882C85FD0408BE0ECE024
:10269000F1E0DE01AF51BF4F01900D928A95E1F755
:1026A000C451DF4F1882CC5ED04089E1E8E1F1E00F
:1026B000DE01A754BF4F01900D928A95E1F7CE52EB
:1026C000DF4F1882C25DD0408DE0E2E3F1E0DE0131
:1026D000AD52BF4F01900D928A95E1F7C052DF4F86
:1026E0001882C05ED0401E0143E0240E311C8EE2F1
:1026F000D1011D928A95E9F780EF89839AE09A8348
:102700008C8339E03D838F8311E019878A871B878B
:102710008D8730E43E87888BF6E0EF2EE98A8B8B3D
:1027200002E00C8B9D8B8E8B37E03F8B898F33E0E3
:102730003A8F8C8F34E03D8F1E8F8F8FAEE0FA2E54
:10274000F8A28AA331E43BA39CA38DA395E09EA3AA
:1027500088A788E089A785EB809301032093020373
:10276000E0918903F0918A030083E0918503F09161
:1027700086031082E0918703F09188038FEC8083B9
:1027800010929103E0918D03F0918E03E082E0912D
:102790008B03F0918C03808180618083E0918B03B7
:1027A000F0918C03808188608083E0918B03F091AD
:1027B0008C03808180688083E0918B03F0918C038F
:1027C00080818F7D80830E944B02EDE1F3E086E201
:1027D000DF011D928A95E9F78AE1FE01E754FF4F78
:1027E000A3E0B3E001900D928A95E1F70093150301
:1027F0000E94B30189E793E00E949301E0918B036B
:10280000F0918C0380818F7E8083E0918B03F09127
:102810008C038081877F8083E0918B03F0918C0310
:1028200080818F778083E0918B03F0918C0380818E
:102830008F7D80838091930380939203E09189033D
:10284000F0918A030083E0918503F0918603108262
:10285000E0918703F091880387E6808310929103CB
:10286000E0918D03F0918E03E082E0918B03F09173
:102870008C03808180618083E0918B03F0918C03D5
:10288000808188608083E0918B03F0918C0380814C
:1028900080688083E0918B03F0918C0380818F7D31
:1028A00080830E944B02BFE0CB2EB3E0DB2E04E31B
:1028B000F601202F11922A95E9F78CE0FE01EF51E5
:1028C000FF4FA3E0B3E001900D928A95E1F70E94DB
:1028D000B3010E944B02D6011D920A95E9F78CE0E4
:1028E000FE01E351FF4FA3E0B3E001900D928A9502
:1028F000E1F784EF80930703109308030E94B3016C
:10290000E1E1F3E082E1DF011D928A95E9F7FE0142
:10291000ED52FF4FA3E0B3E001900D92FA94E1F77E
:102920008E010F5F1F4F502E412EF801F080FF20C7
:10293000E9F00E944B02F0920703D80111968C91A6
:1029400011978093080312968C91809309038093CA
:102950000A0380930B0380930C0380930D038093F1
:102960000E030E94B3010D5F1F4FDFCF88E898E090
:1029700090938F0180938E010E9480028B011092B0
:102980006F0610926E06109271068AE080936D06B3
:102990000E94870061E080916D060E94DA0182E565
:1029A00080936506109266060E94330810926B06AB
:1029B00010926C0680916F06811104C083E696E048
:1029C0000E948C0261E080916D060E94DA01EAE0CB
:1029D000FE2E8FEF0E949C02FA94F110FACF60E075
:1029E00080916D060E94DA017AE0F72E20E030E057
:1029F000A90160E083E696E00E940803E82EB1E0BA
:102A00008B1709F487C0FA94F11076C081E08093A7
:102A10006E0683E696E00E94C10283E696E09093FC
:102A200062068093610610916E06111179C1909330
:102A300017048093160410921B0441E050E060E0FC
:102A400070E040931E0450931F0460932004709321
:102A500021049093380480933704109236048FEF4A
:102A60009FEFDC0180933D0490933E04A0933F04CC
:102A7000B093400420E040E050E0BA0186E394E0E7
:102A80000E94E204009709F44BC1FC01E254FE4F9E
:102A90002481222309F444C120812F7709F040C109
:102AA0008A539E4FDC01CD90DD90ED90FC90B701F4
:102AB000A60186E394E00E94E204FC01892B09F45C
:102AC0002FC18089823009F02BC1838594858115BF
:102AD000924009F025C19585909318048FEF890FD6
:102AE0008093190481E0981709F480C01F5F1930A2
:102AF00009F4DBC2880FF7CF8DEF0E949C0268E0DB
:102B0000C62E62E0D62E0E94A302E1E0CE1AD108C2
:102B1000D1F76CCF2AEA31E040E050E068E083E68C
:102B200096E00E94080382FD10C082E08093710647
:102B300054E0F52E0E94A30280937006FA94F110DF
:102B4000F9CF8A3A21F086E062CFE0927106809157
:102B50007106C12CD12CE12C40E4F42E823019F006
:102B6000C12CD12C760120E030E0A90167E383E697
:102B700096E00E940803A701960169E283E696E0C9
:102B80000E940803882349F00E948002601B710B99
:102B9000613D774040F387E13ACF80917106823002
:102BA000D1F420E030E0A9016AE383E696E00E94D8
:102BB0000803882311F082E12ACF0E94A302807CBF
:102BC000803C19F483E0809371060E94A3020E9466
:102BD000A3020E94A30283E696E00E94C10280E560
:102BE0008093650681E08093660617CF10931A04E0
:102BF00086899789B0E0A0E0809322049093230413
:102C0000A0932404B0932504892B8A2B8B2B61F489
:102C100084A195A1A6A1B7A1809322049093230437
:102C2000A0932404B093250486859785B701A60157
:102C3000480F591F611D711D40932A0450932B04A6
:102C400060932C0470932D042189328930931D04E4
:102C500020931C048090220490902304A0902404CC
:102C6000B0902504D501C401880F991FAA1FBB1F6E
:102C7000480F591F6A1F7B1F40933204509333043F
:102C80006093340470933504C90125E0880F991FBF
:102C90002A95E1F781509E4F892F99278695480FF5
:102CA000591F611D711D40932604509327046093A2
:102CB00028047093290483899489B0E0A0E00097E8
:102CC000A105B10521F480A191A1A2A1B3A1C41ACB
:102CD000D50AE60AF70A8C0D9D1DAE1DBF1D6C01BD
:102CE0007D0104C0F694E794D794C7941A95D2F75F
:102CF000D701C6010196A11DB11D80932E049093AA
:102D00002F04A0933004B093310425EFC2162FE0B6
:102D1000D206E104F10408F079C18CE080931B0431
:102D200060E086E00E94DA0101E610E00C0F1D1F52
:102D3000045F1F4F4DE850E04C0F5D1F445F5F4F35
:102D4000C750DF4F59834883C95FD0408091F90253
:102D5000811107C08DEC92E00E94DB0881E0809336
:102D6000F9020E9480026093C9027093CA028093A4
:102D7000CB029093CC0250E8C52ED12C62E0662E97
:102D8000712C88248394912C89E793E00E9404019C
:102D9000892B09F453C089E793E00E94E2005C01AB
:102DA000E090C702F090C802F701EF5FFC4F80830C
:102DB0002091C5023091C6022130310509F487C146
:102DC0002230310509F417C3232BC9F4843209F0EA
:102DD00070C19092C6028092C5021092C4021092F5
:102DE000C3021092C2021092C10281E093E090935C
:102DF000C0028093BF029093BE028093BD02809177
:102E0000C5029091C602892BA1F08091C7029091D2
:102E1000C80201969093C8028093C702813691053B
:102E200044F01092C6021092C5021092C80210928D
:102E3000C702B1E0CB1AD10809F0A6CF8091D90220
:102E40008111F0C2809165038111A8C08091B30205
:102E50009091B402813D974008F4A0C08091AD02EA
:102E60009091AE02892B09F499C0CE0183579F4FF0
:102E70000E94DB0888EEE82E83E0F82E99E6692EA2
:102E800091E0792E28EE822E23E0922E3EE6C32E8C
:102E900031E0D32E45E6A42E43E0B42E7F926F920C
:102EA0008091970190919801B4010E94A71A9F9375
:102EB0008F938091B0028F938091AF028F93809116
:102EC000B2028F938091B1028F938091B4028F935D
:102ED0008091B3028F93DF92CF92BF92AF920E9404
:102EE000ED1ACE018F599F4F0E94DB0860E0C801A8
:102EF0000E941A10A5968EAD9FADA597C157DF4FC2
:102F000099838883CF58D040A9968CAD9DADAEAD46
:102F1000BFADA997CF56DF4F88839983AA83BB8320
:102F2000C159D040AD968CAD9DADAEADBFADAD97A6
:102F3000CB56DF4F88839983AA83BB83C559D04082
:102F400080E2F801C750DF4FA881B981C95FD04046
:102F500001900D928A95E1F7C756DF4F8881C959D4
:102F6000D0400FB6F894DEBF0FBECDBF8823B1F0BE
:102F7000C750DF4F88819981C95FD0400E942908DE
:102F80008091970190919801019690939801809378
:102F9000970131E0E31AF10809F080CF0E94800226
:102FA0006093C9027093CA028093CB029093CC02C3
:102FB000C0909301D0909401E0909501F09096011B
:102FC0009B01AC012C193D094E095F0969017A0189
:102FD00035E6C316D104E104F10408F458C2609345
:102FE0009301709394018093950190939601F090D2
:102FF000920145E0F41609F43DC24F1508F431C2C0
:1030000051E05F1508F03DC260E060C280E135EF3D
:10301000C3163FEFD306E104F10468F084A595A53B
:10302000A6A5B7A58093320490933304A0933404EB
:10303000B093350480E280931B048092390490920F
:103040003A04A0923B04B0923C0481E496E00E94D2
:10305000290880914106811163CE80E2E1E4F6E027
:10306000DF01282F1D922A95E9F726E134E03093FD
:1030700048062093470690911B04903121F090322E
:1030800009F04ECE80E48093410681E080934306B0
:1030900086E194E0909391018093900181E090E02B
:1030A0009093A2028093A1023BCE88E080931A0401
:1030B00037CE853B09F0A3CE7092C6026092C5025E
:1030C00088E090E09093BC028093BB0298CE8A3255
:1030D00009F473C18C3209F4CAC08A3009F0E9C01E
:1030E0009FEFE91AF90AF701EF5FFC4F1082809118
:1030F000C9029091CA02A091CB02B091CC028093F8
:10310000A7029093A802A093A902B093AA02E0910B
:10311000BF02F091C0029091A302808198139EC0DB
:103120009091A4028181981399C08091A1029091FD
:10313000A202892B09F492C08091AD029091AE0257
:10314000892B09F48BC080916503882309F486C01C
:1031500080919F029091A002ACEFB0E0A81BB90B48
:10316000AE15BF050CF069C061E086E00E94DA018F
:103170008091D902811135C0CE018F599F4F0E9495
:10318000DB0866E1C8010E941A10A5968EAD9FADBE
:10319000A5979093D0028093CF02A9968CAD9DAD58
:1031A000AEADBFADA9978093D1029093D202A09308
:1031B000D302B093D402AD968CAD9DADAEADBFAD94
:1031C000AD978093D5029093D602A093D702B09387
:1031D000D80280E2F801A9EDB2E001900D928A9543
:1031E000E1F78091D902882301F140919F0250912B
:1031F000A0026FE971E08DEC92E00E94490C809191
:103200009D0190919E01813D97400CF4D1C089EDC4
:1032100092E00E9429080E948002609399017093B5
:103220009A0180939B0190939C0160E086E00E944C
:10323000DA011092A00210929F02A0909F02B0901B
:10324000A00261E073E0C50181569E4F0E94D71A2B
:10325000EA0CFB1CF092A002E0929F021092C602C0
:103260001092C5021092C8021092C702C8CD809178
:10327000C3029091C40201969093C4028093C3024A
:1032800020910403223509F06AC0209105032D34F2
:1032900049F420910603233429F48230910599F0F2
:1032A0000A97B1F1C7018E5F9C4F9093BE02809345
:1032B000BD028091C1029091C2028A259093C20200
:1032C0008093C1029CCD6091BD027091BE0248E026
:1032D00050E0852D942D0E94DE1A1F82CE010596A6
:1032E0000E946D1A9093BA028093B9021D82C101A7
:1032F0000E946D1A9093B8028093B7021B82852DAD
:10330000942D0E946D1A9093B6028093B502CACF95
:103310006091BD027091BE0246E050E0852D942D73
:103320000E94DE1A1F82CE0105960E946D1A8053FC
:10333000984F9093B4028093B3021D82C1010E9402
:103340006D1A9093B2028093B1021B82852D942D49
:103350000E946D1A9093B0028093AF02A3CF2734DE
:1033600009F0A0CF20910503273409F09BCF2091CD
:103370000603213409F096CF8730910571F0089744
:1033800009F090CF8091BD029091BE020E946D1A0B
:103390009093AC028093AB0285CF8091BD02909157
:1033A000BE020E946D1A9093AE028093AD027ACF56
:1033B00089ED92E00E949A072ECFC7018E5F9C4F45
:1033C0009093C0028093BF028091C2028F9380913C
:1033D000C1028F93E4E6F1E0FF93EF9343EA52E0FA
:1033E0005F934F930E94ED1A0F900F900F900F90E4
:1033F0000F900F9004CD94E0E916F10449F4BB243A
:10340000A8E0AA0EB11CB092BC02A092BB02F7CCFD
:103410008091BB029091BC020197E816F9060CF06E
:103420001DCFEDCC8091C9029091CA02A091CB0230
:10343000B091CC024091990150919A0160919B0109
:1034400070919C01841B950BA60BB70B81319742A1
:10345000A105B10508F4F6CC89ED92E00E94290897
:10346000F1CCA9E0FA1631F0B3E1FB16E9F0E7E0A0
:10347000FE12CACD8091AB029091AC02F8161906EB
:1034800024F181E08F0D843128F58093920180E052
:1034900090E0892B09F45ACC0E941001882309F48A
:1034A00049CC0E94000046CC8090A7029090A802D0
:1034B000A090A902B090AA02681979098A099B090B
:1034C000603D774081059105E0F661E085E00E946E
:1034D000DA01D7CF10929201DACFFC018827992721
:1034E000E89421912032E9F3293010F02E30C8F30E
:1034F0002B3241F02D3239F4689404C00E948B1AAB
:10350000820F911D219120532A30C0F31EF4909513
:1035100081959F4F08957AE0979F902D879F802DEA
:10352000910D11240895AA1BBB1B51E107C0AA1FCE
:10353000BB1FA617B70710F0A61BB70B881F991F54
:103540005A95A9F780959095BC01CD01089597FBF8
:10355000072E16F4009407D077FD09D00E94931A25
:1035600007FC05D03EF4909581959F4F0895709586
:1035700061957F4F0895EE0FFF1F0590F491E02DA8
:103580000994FB01DC0104C08D910190801921F4A4
:1035900041505040C8F7881B990B0895FB01DC018E
:1035A00002C001900D9241505040D8F70895FB01A0
:1035B000DC0101900D920020E1F70895FB01DC0190
:1035C0004150504048F001900D920020C9F701C0D1
:1035D0001D9241505040E0F70895AEE0B0E0E3EFB7
:1035E000FAE10C949C1D0D891E8986E08C831A8358
:1035F00009838FEF9FE79E838D83AE01475E5F4F08
:103600006F89788DCE0101960E94101B2F8138851D
:10361000020F131FF80110822E96E4E00C94B81DDF
:10362000ABE0B0E0E6E1FBE10C948E1D7C013B01D8
:103630008A01FC0117821682838181FFC8C1CE01F5
:1036400001965C01F7019381F30193FD859193FF4E
:1036500081913F01882309F453C1853239F493FDE8
:10366000859193FF81913F01853229F4B70190E064
:103670000E94001DE7CF912C212C312CFFE1F31586
:1036800038F08B3211F190F4803209F1833229F154
:1036900037FC3CC020ED280F2A3050F536FE20C004
:1036A0008AE0989E200D1124922E06C08D3291F052
:1036B000803371F7689430F8F30193FD859193FF9F
:1036C00081913F018111DACF21C0689431F868946B
:1036D00032F8F2CF689433F8EFCF689434F8ECCF37
:1036E000EAE02E9E200D1124222E689435F8E4CFB6
:1036F0008E3229F436FC04C1689436F8DDCF8C365E
:1037000019F4689437F8D8CF8836B1F2982F9F7D96
:1037100095549330E0F08336A1F18337C1F18335BE
:1037200009F063C02801F2E04F0E511CF801C0807F
:10373000D180692D70E036FC02C06FEF7FEFC601CB
:103740000E94EA1C4C01689437F882010AC00C5FA1
:103750001F4FFFE3F98388248394912C6501E8943B
:1037600037F833FE2DC0522C8114910471F5552089
:1037700009F468CFB70180E290E00E94001D5A94DE
:10378000F6CFF801808189830E5F1F4FE4CF2801B7
:10379000F2E04F0E511CF801C080D180692D70E01D
:1037A00036FC02C06FEF7FEFC6010E94F51C4C0192
:1037B0008201D5CFB70180E290E00E94001D2A94DB
:1037C0002814190409F0B0F7CECFF60137FC859123
:1037D00037FE81916F01B70190E00E94001D5110EA
:1037E0005A94F1E08F1A9108BFCF843619F08936C8
:1037F00009F077C0F80137FE6BC06081718182816A
:1038000093810C5F1F4FF32DFF763F2E97FF09C06A
:1038100090958095709561957F4F8F4F9F4F6894DD
:1038200037F82AE030E0A5010E94301DC82ECA18E2
:103830008C2C432C36FE0CC0E89440F8C91440F49C
:1038400034FE05C032FC03C0F32DFE7E4F2E892CC2
:1038500044FE95C0FE01EC0DF11D8081803309F01E
:1038600087C0242D297E422E842D8870582E43FC3B
:1038700095C040FE8FC09C2C821418F42C0C922C06
:10388000981844FE91C0B70180E390E00E94001DAB
:1038900042FE09C088E790E041FE02C088E590E062
:1038A000B7010E94001DC91408F48AC0CA94D12C23
:1038B0009FEFC91AD90ACA0CDB1CF60182916F016D
:1038C000B70190E00E94001DAC14BD04B1F74FCFCA
:1038D00060817181072E000C880B990B0E5F1F4FC2
:1038E00092CFD32CE894D4F82AE030E0853739F130
:1038F000232D297FD22E8F3601F148F48835A9F087
:10390000F701868197812B96E2E10C94AA1D8037FE
:1039100049F08837A9F7D4FE02C06894D2F820E1B4
:1039200030E00DC06894D4F8F6CF34FE03C0822F87
:103930008660D82E20E132E002C028E030E0F801B5
:10394000D7FE0FC060817181828193810C5F1F4F10
:10395000A5010E94301DC82ECA183D2CE89437F8E6
:1039600067CF6081718190E080E00E5F1F4FF0CFE4
:1039700042FC02C0839478CF8394839475CF842DC6
:10398000867809F471CFF6CFB70180E290E00E940B
:10399000001D83948214C0F3512C73CF522C5818FD
:1039A000821408F46ECFF8CF842D867809F47BCF8B
:1039B0008BE241FE80E247FC8DE2B70190E071CFDF
:1039C000B70180E390E00E94001D9A946CCF8FEFC6
:1039D0009FEF99CFFC010590615070400110D8F71E
:1039E000809590958E0F9F1F0895FC016150704047
:1039F00001900110D8F7809590958E0F9F1F089524
:103A00000F931F93CF93DF93182F092FEB018B8117
:103A100081FD09C01FEF0FEF812F902FDF91CF9114
:103A20001F910F91089582FF14C02E813F818C81D8
:103A30009D81281739073CF4E881F981CF0101966F
:103A40009983888310838E819F8101969F838E83C3
:103A5000E3CFE885F985812F0995892BA1F3DACF8A
:103A6000FA01AA27283051F1203181F1E8946F93AF
:103A70006E7F6E5F7F4F8F4F9F4FAF4FB1E03ED055
:103A8000B4E03CD0670F781F891F9A1FA11D680FF3
:103A9000791F8A1F911DA11D6A0F711D811D911D26
:103AA000A11D20D009F468943F912AE0269F11249B
:103AB0003019305D3193DEF6CF010895462F4770FF
:103AC000405D4193B3E00FD0C9F7F6CF462F4F705A
:103AD000405D4A3318F0495D31FD4052419302D0B8
:103AE000A9F7EACFB4E0A69597958795779567955E
:103AF000BA95C9F700976105710508959B01AC015E
:103B00000A2E06945795479537952795BA95C9F784
:103B1000620F731F841F951FA01D08952F923F925F
:103B20004F925F926F927F928F929F92AF92BF92CD
:103B3000CF92DF92EF92FF920F931F93CF93DF9379
:103B4000CDB7DEB7CA1BDB0B0FB6F894DEBF0FBED6
:103B5000CDBF09942A88398848885F846E847D8423
:103B60008C849B84AA84B984C884DF80EE80FD8025
:103B70000C811B81AA81B981CE0FD11D0FB6F8949B
:103B8000DEBF0FBECDBFED010895F894FFCF06084C
:103B90000600C80001000100000006242400050002
:103BA0000702000000000600140001000000D00819
:103BB0000000004B000003000300000000000000B4
:103BC00006010800F00200000000000100000000F3
:103BD0000000370C490CEE0885086608660A290AB9
:103BE000000000004601A600D30093010401E2009A
:103BF000F60025303258002E747874002F253034AA
:103C00006425303264253032642E253033642573C8
:023C10000000B2
:107E0000112484B714BE81FFF0D085E080938100F7
:107E100082E08093C00088E18093C10086E0809377
:107E2000C20080E18093C4008EE0C9D0259A86E02C
:107E300020E33CEF91E0309385002093840096BBD3
:107E4000B09BFECF1D9AA8958150A9F7CC24DD24C4
:107E500088248394B5E0AB2EA1E19A2EF3E0BF2EE7
:107E6000A2D0813461F49FD0082FAFD0023811F036
:107E7000013811F484E001C083E08DD089C08234E0
:107E800011F484E103C0853419F485E0A6D080C0E4
:107E9000853579F488D0E82EFF2485D0082F10E0AE
:107EA000102F00270E291F29000F111F8ED06801E7
:107EB0006FC0863521F484E090D080E0DECF843638
:107EC00009F040C070D06FD0082F6DD080E0C81688
:107ED00080E7D80618F4F601B7BEE895C0E0D1E017
:107EE00062D089930C17E1F7F0E0CF16F0E7DF06D8
:107EF00018F0F601B7BEE89568D007B600FCFDCFD4
:107F0000A601A0E0B1E02C9130E011968C91119780
:107F100090E0982F8827822B932B1296FA010C0160
:107F200087BEE89511244E5F5F4FF1E0A038BF0790
:107F300051F7F601A7BEE89507B600FCFDCF97BE46
:107F4000E89526C08437B1F42ED02DD0F82E2BD052
:107F50003CD0F601EF2C8F010F5F1F4F84911BD097
:107F6000EA94F801C1F70894C11CD11CFA94CF0C13
:107F7000D11C0EC0853739F428D08EE10CD085E9AC
:107F80000AD08FE07ACF813511F488E018D01DD067
:107F900080E101D065CF982F8091C00085FFFCCF94
:107FA0009093C60008958091C00087FFFCCF809118
:107FB000C00084FD01C0A8958091C6000895E0E648
:107FC000F0E098E1908380830895EDDF803219F02E
:107FD00088E0F5DFFFCF84E1DECF1F93182FE3DFCA
:107FE0001150E9F7F2DF1F91089580E0E8DFEE27F6
:047FF000FF270994CA
:027FFE00040479
:00000001FF
